{
  "contractName": "TradingBot",
  "abi": [
    {
      "inputs": [],
      "payable": true,
      "stateMutability": "payable",
      "type": "constructor"
    },
    {
      "payable": true,
      "stateMutability": "payable",
      "type": "fallback"
    },
    {
      "constant": true,
      "inputs": [],
      "name": "DAI",
      "outputs": [
        {
          "internalType": "address",
          "name": "",
          "type": "address"
        }
      ],
      "payable": false,
      "stateMutability": "view",
      "type": "function"
    },
    {
      "constant": true,
      "inputs": [],
      "name": "SAI",
      "outputs": [
        {
          "internalType": "address",
          "name": "",
          "type": "address"
        }
      ],
      "payable": false,
      "stateMutability": "view",
      "type": "function"
    },
    {
      "constant": true,
      "inputs": [],
      "name": "USDC",
      "outputs": [
        {
          "internalType": "address",
          "name": "",
          "type": "address"
        }
      ],
      "payable": false,
      "stateMutability": "view",
      "type": "function"
    },
    {
      "constant": true,
      "inputs": [],
      "name": "WETH",
      "outputs": [
        {
          "internalType": "address",
          "name": "",
          "type": "address"
        }
      ],
      "payable": false,
      "stateMutability": "view",
      "type": "function"
    },
    {
      "constant": true,
      "inputs": [
        {
          "internalType": "address",
          "name": "",
          "type": "address"
        }
      ],
      "name": "currencies",
      "outputs": [
        {
          "internalType": "uint256",
          "name": "",
          "type": "uint256"
        }
      ],
      "payable": false,
      "stateMutability": "view",
      "type": "function"
    },
    {
      "constant": true,
      "inputs": [],
      "name": "loan",
      "outputs": [
        {
          "internalType": "uint256",
          "name": "",
          "type": "uint256"
        }
      ],
      "payable": false,
      "stateMutability": "view",
      "type": "function"
    },
    {
      "constant": true,
      "inputs": [
        {
          "internalType": "address",
          "name": "token",
          "type": "address"
        }
      ],
      "name": "tokenToMarketId",
      "outputs": [
        {
          "internalType": "uint256",
          "name": "",
          "type": "uint256"
        }
      ],
      "payable": false,
      "stateMutability": "view",
      "type": "function"
    },
    {
      "constant": false,
      "inputs": [
        {
          "internalType": "address",
          "name": "flashToken",
          "type": "address"
        },
        {
          "internalType": "uint256",
          "name": "flashAmount",
          "type": "uint256"
        },
        {
          "internalType": "address",
          "name": "arbToken",
          "type": "address"
        },
        {
          "internalType": "bytes",
          "name": "zrxData",
          "type": "bytes"
        },
        {
          "internalType": "uint256",
          "name": "oneSplitMinReturn",
          "type": "uint256"
        },
        {
          "internalType": "uint256[]",
          "name": "oneSplitDistribution",
          "type": "uint256[]"
        }
      ],
      "name": "getFlashloan",
      "outputs": [],
      "payable": true,
      "stateMutability": "payable",
      "type": "function"
    },
    {
      "constant": false,
      "inputs": [
        {
          "internalType": "address",
          "name": "",
          "type": "address"
        },
        {
          "components": [
            {
              "internalType": "address",
              "name": "owner",
              "type": "address"
            },
            {
              "internalType": "uint256",
              "name": "number",
              "type": "uint256"
            }
          ],
          "internalType": "struct Structs.Info",
          "name": "",
          "type": "tuple"
        },
        {
          "internalType": "bytes",
          "name": "data",
          "type": "bytes"
        }
      ],
      "name": "callFunction",
      "outputs": [],
      "payable": false,
      "stateMutability": "nonpayable",
      "type": "function"
    },
    {
      "constant": false,
      "inputs": [
        {
          "internalType": "address",
          "name": "_fromToken",
          "type": "address"
        },
        {
          "internalType": "address",
          "name": "_toToken",
          "type": "address"
        },
        {
          "internalType": "uint256",
          "name": "_fromAmount",
          "type": "uint256"
        },
        {
          "internalType": "bytes",
          "name": "_0xData",
          "type": "bytes"
        },
        {
          "internalType": "uint256",
          "name": "_1SplitMinReturn",
          "type": "uint256"
        },
        {
          "internalType": "uint256[]",
          "name": "_1SplitDistribution",
          "type": "uint256[]"
        }
      ],
      "name": "arb",
      "outputs": [],
      "payable": true,
      "stateMutability": "payable",
      "type": "function"
    },
    {
      "constant": false,
      "inputs": [
        {
          "internalType": "address",
          "name": "_fromToken",
          "type": "address"
        },
        {
          "internalType": "address",
          "name": "_toToken",
          "type": "address"
        },
        {
          "internalType": "uint256",
          "name": "_fromAmount",
          "type": "uint256"
        },
        {
          "internalType": "bytes",
          "name": "_0xData",
          "type": "bytes"
        },
        {
          "internalType": "uint256",
          "name": "_1SplitMinReturn",
          "type": "uint256"
        },
        {
          "internalType": "uint256[]",
          "name": "_1SplitDistribution",
          "type": "uint256[]"
        }
      ],
      "name": "trade",
      "outputs": [],
      "payable": true,
      "stateMutability": "payable",
      "type": "function"
    },
    {
      "constant": false,
      "inputs": [
        {
          "internalType": "address",
          "name": "_from",
          "type": "address"
        },
        {
          "internalType": "uint256",
          "name": "_amount",
          "type": "uint256"
        },
        {
          "internalType": "bytes",
          "name": "_calldataHexString",
          "type": "bytes"
        }
      ],
      "name": "zrxSwap",
      "outputs": [],
      "payable": true,
      "stateMutability": "payable",
      "type": "function"
    },
    {
      "constant": false,
      "inputs": [
        {
          "internalType": "address",
          "name": "_from",
          "type": "address"
        },
        {
          "internalType": "address",
          "name": "_to",
          "type": "address"
        },
        {
          "internalType": "uint256",
          "name": "_amount",
          "type": "uint256"
        },
        {
          "internalType": "uint256",
          "name": "_minReturn",
          "type": "uint256"
        },
        {
          "internalType": "uint256[]",
          "name": "_distribution",
          "type": "uint256[]"
        }
      ],
      "name": "oneSplitSwap",
      "outputs": [],
      "payable": true,
      "stateMutability": "payable",
      "type": "function"
    },
    {
      "constant": false,
      "inputs": [],
      "name": "getWeth",
      "outputs": [],
      "payable": true,
      "stateMutability": "payable",
      "type": "function"
    },
    {
      "constant": false,
      "inputs": [
        {
          "internalType": "uint256",
          "name": "_amount",
          "type": "uint256"
        }
      ],
      "name": "approveWeth",
      "outputs": [],
      "payable": false,
      "stateMutability": "nonpayable",
      "type": "function"
    },
    {
      "constant": false,
      "inputs": [
        {
          "internalType": "address",
          "name": "_tokenAddress",
          "type": "address"
        }
      ],
      "name": "withdrawToken",
      "outputs": [],
      "payable": false,
      "stateMutability": "nonpayable",
      "type": "function"
    },
    {
      "constant": false,
      "inputs": [],
      "name": "withdrawEther",
      "outputs": [],
      "payable": false,
      "stateMutability": "nonpayable",
      "type": "function"
    }
  ],
  "bytecode": "0x6080604052731e0447b19bb6ecfdae1e4ae1694b0c3659614e4e6000806101000a81548173ffffffffffffffffffffffffffffffffffffffff021916908373ffffffffffffffffffffffffffffffffffffffff16021790555073c02aaa39b223fe8d0a0e5c4f27ead9083c756cc2600160006101000a81548173ffffffffffffffffffffffffffffffffffffffff021916908373ffffffffffffffffffffffffffffffffffffffff1602179055507389d24a6b4ccb1b6faa2625fe562bdd9a23260359600260006101000a81548173ffffffffffffffffffffffffffffffffffffffff021916908373ffffffffffffffffffffffffffffffffffffffff16021790555073a0b86991c6218b36c1d19d4a2e9eb0ce3606eb48600360006101000a81548173ffffffffffffffffffffffffffffffffffffffff021916908373ffffffffffffffffffffffffffffffffffffffff160217905550736b175474e89094c44da98b954eedeac495271d0f600460006101000a81548173ffffffffffffffffffffffffffffffffffffffff021916908373ffffffffffffffffffffffffffffffffffffffff16021790555073c586bef4a0992c495cf22e1aeee4e446cecdee0e600860006101000a81548173ffffffffffffffffffffffffffffffffffffffff021916908373ffffffffffffffffffffffffffffffffffffffff160217905550600a6009556000600a557361935cbdd02287b511119ddb11aeb42f1593b7ef600b60006101000a81548173ffffffffffffffffffffffffffffffffffffffff021916908373ffffffffffffffffffffffffffffffffffffffff1602179055507395e6f48254609a6ee006f7d493c8e5fb97094cef600c60006101000a81548173ffffffffffffffffffffffffffffffffffffffff021916908373ffffffffffffffffffffffffffffffffffffffff16021790555073a26e80e7dea86279c6d778d702cc413e6cffa777600d60006101000a81548173ffffffffffffffffffffffffffffffffffffffff021916908373ffffffffffffffffffffffffffffffffffffffff160217905550600160056000600160009054906101000a900473ffffffffffffffffffffffffffffffffffffffff1673ffffffffffffffffffffffffffffffffffffffff1673ffffffffffffffffffffffffffffffffffffffff16815260200190815260200160002081905550600260056000600260009054906101000a900473ffffffffffffffffffffffffffffffffffffffff1673ffffffffffffffffffffffffffffffffffffffff1673ffffffffffffffffffffffffffffffffffffffff16815260200190815260200160002081905550600360056000600360009054906101000a900473ffffffffffffffffffffffffffffffffffffffff1673ffffffffffffffffffffffffffffffffffffffff1673ffffffffffffffffffffffffffffffffffffffff16815260200190815260200160002081905550600460056000600460009054906101000a900473ffffffffffffffffffffffffffffffffffffffff1673ffffffffffffffffffffffffffffffffffffffff1673ffffffffffffffffffffffffffffffffffffffff16815260200190815260200160002081905550620004b7346200050f60201b60201c565b620004c834620005e860201b60201c565b33600760006101000a81548173ffffffffffffffffffffffffffffffffffffffff021916908373ffffffffffffffffffffffffffffffffffffffff1602179055506200086c565b6000600160009054906101000a900473ffffffffffffffffffffffffffffffffffffffff1673ffffffffffffffffffffffffffffffffffffffff1682604051620005599062000786565b60006040518083038185875af1925050503d806000811462000598576040519150601f19603f3d011682016040523d82523d6000602084013e6200059d565b606091505b5050905080620005e4576040517f08c379a0000000000000000000000000000000000000000000000000000000008152600401620005db90620007ca565b60405180910390fd5b5050565b600160009054906101000a900473ffffffffffffffffffffffffffffffffffffffff1673ffffffffffffffffffffffffffffffffffffffff1663095ea7b3600d60009054906101000a900473ffffffffffffffffffffffffffffffffffffffff16836040518363ffffffff1660e01b8152600401620006699291906200079d565b602060405180830381600087803b1580156200068457600080fd5b505af115801562000699573d6000803e3d6000fd5b505050506040513d601f19601f82011682018060405250620006bf9190810190620006da565b5050565b600081519050620006d48162000852565b92915050565b600060208284031215620006ed57600080fd5b6000620006fd84828501620006c3565b91505092915050565b620007118162000808565b82525050565b600062000726601283620007f7565b91507f6661696c656420746f20676574207765746800000000000000000000000000006000830152602082019050919050565b600062000768600083620007ec565b9150600082019050919050565b620007808162000848565b82525050565b6000620007938262000759565b9150819050919050565b6000604082019050620007b4600083018562000706565b620007c3602083018462000775565b9392505050565b60006020820190508181036000830152620007e58162000717565b9050919050565b600081905092915050565b600082825260208201905092915050565b6000620008158262000828565b9050919050565b60008115159050919050565b600073ffffffffffffffffffffffffffffffffffffffff82169050919050565b6000819050919050565b6200085d816200081c565b81146200086957600080fd5b50565b613127806200087c6000396000f3fe6080604052600436106100fe5760003560e01c80638b41871311610095578063d285b7b411610064578063d285b7b4146102c2578063d702c0d8146102ed578063df1e664614610309578063df99a2b214610332578063e0bab4c41461034e576100fe565b80638b41871314610215578063ad5c46481461023e578063b826878814610269578063c8c61a79146102a6576100fe565b80637362377b116100d15780637362377b1461018e5780637e68f511146101a557806389476069146101c157806389a30271146101ea576100fe565b8063107c279f1461010057806312b246dd1461010a5780634b3fb7f8146101265780636036cba314610151575b005b610108610379565b005b610124600480360361011f9190810190612167565b610414565b005b34801561013257600080fd5b5061013b6104b8565b6040516101489190612a59565b60405180910390f35b34801561015d57600080fd5b5061017860048036036101739190810190611fb7565b6104de565b6040516101859190612cea565b60405180910390f35b34801561019a57600080fd5b506101a36104f6565b005b6101bf60048036036101ba91908101906120ae565b610614565b005b3480156101cd57600080fd5b506101e860048036036101e39190810190611fb7565b6106ba565b005b3480156101f657600080fd5b506101ff61088b565b60405161020c9190612a59565b60405180910390f35b34801561022157600080fd5b5061023c600480360361023791908101906121f6565b6108b1565b005b34801561024a57600080fd5b50610253610a5d565b6040516102609190612a59565b60405180910390f35b34801561027557600080fd5b50610290600480360361028b9190810190611fb7565b610a83565b60405161029d9190612cea565b60405180910390f35b6102c060048036036102bb9190810190612325565b610b18565b005b3480156102ce57600080fd5b506102d7610bb8565b6040516102e49190612cea565b60405180910390f35b61030760048036036103029190810190612262565b610bbe565b005b34801561031557600080fd5b50610330600480360361032b91908101906123b5565b610d26565b005b61034c600480360361034791908101906120ae565b610dc2565b005b34801561035a57600080fd5b50610363610e68565b6040516103709190612a59565b60405180910390f35b600760009054906101000a900473ffffffffffffffffffffffffffffffffffffffff1673ffffffffffffffffffffffffffffffffffffffff163373ffffffffffffffffffffffffffffffffffffffff1614610409576040517f08c379a000000000000000000000000000000000000000000000000000000000815260040161040090612c2a565b60405180910390fd5b61041234610e8e565b565b600760009054906101000a900473ffffffffffffffffffffffffffffffffffffffff1673ffffffffffffffffffffffffffffffffffffffff163373ffffffffffffffffffffffffffffffffffffffff16146104a4576040517f08c379a000000000000000000000000000000000000000000000000000000000815260040161049b90612c2a565b60405180910390fd5b6104b18585858585610f60565b5050505050565b600260009054906101000a900473ffffffffffffffffffffffffffffffffffffffff1681565b60056020528060005260406000206000915090505481565b600760009054906101000a900473ffffffffffffffffffffffffffffffffffffffff1673ffffffffffffffffffffffffffffffffffffffff163373ffffffffffffffffffffffffffffffffffffffff1614610586576040517f08c379a000000000000000000000000000000000000000000000000000000000815260040161057d90612c2a565b60405180910390fd5b600030905060008173ffffffffffffffffffffffffffffffffffffffff16319050600760009054906101000a900473ffffffffffffffffffffffffffffffffffffffff1673ffffffffffffffffffffffffffffffffffffffff166108fc829081150290604051600060405180830381858888f1935050505015801561060f573d6000803e3d6000fd5b505050565b600760009054906101000a900473ffffffffffffffffffffffffffffffffffffffff1673ffffffffffffffffffffffffffffffffffffffff163373ffffffffffffffffffffffffffffffffffffffff16146106a4576040517f08c379a000000000000000000000000000000000000000000000000000000000815260040161069b90612c2a565b60405180910390fd5b6106b2868686868686611173565b505050505050565b600760009054906101000a900473ffffffffffffffffffffffffffffffffffffffff1673ffffffffffffffffffffffffffffffffffffffff163373ffffffffffffffffffffffffffffffffffffffff161461074a576040517f08c379a000000000000000000000000000000000000000000000000000000000815260040161074190612c2a565b60405180910390fd5b60008173ffffffffffffffffffffffffffffffffffffffff166370a08231306040518263ffffffff1660e01b81526004016107859190612a74565b60206040518083038186803b15801561079d57600080fd5b505afa1580156107b1573d6000803e3d6000fd5b505050506040513d601f19601f820116820180604052506107d591908101906123de565b90508173ffffffffffffffffffffffffffffffffffffffff1663a9059cbb600760009054906101000a900473ffffffffffffffffffffffffffffffffffffffff16836040518363ffffffff1660e01b8152600401610834929190612a8f565b602060405180830381600087803b15801561084e57600080fd5b505af1158015610862573d6000803e3d6000fd5b505050506040513d601f19601f82011682018060405250610886919081019061238c565b505050565b600360009054906101000a900473ffffffffffffffffffffffffffffffffffffffff1681565b6000809054906101000a900473ffffffffffffffffffffffffffffffffffffffff1673ffffffffffffffffffffffffffffffffffffffff163373ffffffffffffffffffffffffffffffffffffffff1614610940576040517f08c379a000000000000000000000000000000000000000000000000000000000815260040161093790612c8a565b60405180910390fd5b600080600080606060006060888861095b9190810190611fe0565b965096509650965096509650965060008773ffffffffffffffffffffffffffffffffffffffff166370a08231306040518263ffffffff1660e01b81526004016109a49190612a74565b60206040518083038186803b1580156109bc57600080fd5b505afa1580156109d0573d6000803e3d6000fd5b505050506040513d601f19601f820116820180604052506109f491908101906123de565b90508686820314610a3a576040517f08c379a0000000000000000000000000000000000000000000000000000000008152600401610a3190612caa565b60405180910390fd5b80600681905550610a4f8886898787876112b7565b505050505050505050505050565b600160009054906101000a900473ffffffffffffffffffffffffffffffffffffffff1681565b600080600560008473ffffffffffffffffffffffffffffffffffffffff1673ffffffffffffffffffffffffffffffffffffffff1681526020019081526020016000205490506000811415610b0c576040517f08c379a0000000000000000000000000000000000000000000000000000000008152600401610b0390612cca565b60405180910390fd5b60018103915050919050565b600760009054906101000a900473ffffffffffffffffffffffffffffffffffffffff1673ffffffffffffffffffffffffffffffffffffffff163373ffffffffffffffffffffffffffffffffffffffff1614610ba8576040517f08c379a0000000000000000000000000000000000000000000000000000000008152600401610b9f90612c2a565b60405180910390fd5b610bb383838361142b565b505050565b60065481565b600760009054906101000a900473ffffffffffffffffffffffffffffffffffffffff1673ffffffffffffffffffffffffffffffffffffffff163373ffffffffffffffffffffffffffffffffffffffff1614610c4e576040517f08c379a0000000000000000000000000000000000000000000000000000000008152600401610c4590612c2a565b60405180910390fd5b60008873ffffffffffffffffffffffffffffffffffffffff166370a08231306040518263ffffffff1660e01b8152600401610c899190612a74565b60206040518083038186803b158015610ca157600080fd5b505afa158015610cb5573d6000803e3d6000fd5b505050506040513d601f19601f82011682018060405250610cd991908101906123de565b905060608989838a8a8a8a8a8a604051602001610cfe99989796959493929190612b0a565b6040516020818303038152906040529050610d1a8a8a83611629565b50505050505050505050565b600760009054906101000a900473ffffffffffffffffffffffffffffffffffffffff1673ffffffffffffffffffffffffffffffffffffffff163373ffffffffffffffffffffffffffffffffffffffff1614610db6576040517f08c379a0000000000000000000000000000000000000000000000000000000008152600401610dad90612c2a565b60405180910390fd5b610dbf81611a98565b50565b600760009054906101000a900473ffffffffffffffffffffffffffffffffffffffff1673ffffffffffffffffffffffffffffffffffffffff163373ffffffffffffffffffffffffffffffffffffffff1614610e52576040517f08c379a0000000000000000000000000000000000000000000000000000000008152600401610e4990612c2a565b60405180910390fd5b610e608686868686866112b7565b505050505050565b600460009054906101000a900473ffffffffffffffffffffffffffffffffffffffff1681565b6000600160009054906101000a900473ffffffffffffffffffffffffffffffffffffffff1673ffffffffffffffffffffffffffffffffffffffff1682604051610ed690612a44565b60006040518083038185875af1925050503d8060008114610f13576040519150601f19603f3d011682016040523d82523d6000602084013e610f18565b606091505b5050905080610f5c576040517f08c379a0000000000000000000000000000000000000000000000000000000008152600401610f5390612c6a565b60405180910390fd5b5050565b600085905060008590506000600860009054906101000a900473ffffffffffffffffffffffffffffffffffffffff1690508273ffffffffffffffffffffffffffffffffffffffff1663095ea7b3600860009054906101000a900473ffffffffffffffffffffffffffffffffffffffff16886040518363ffffffff1660e01b8152600401610fee929190612ae1565b602060405180830381600087803b15801561100857600080fd5b505af115801561101c573d6000803e3d6000fd5b505050506040513d601f19601f82011682018060405250611040919081019061238c565b508073ffffffffffffffffffffffffffffffffffffffff1663e2a7515e8484898989600a546040518763ffffffff1660e01b815260040161108696959493929190612bc2565b600060405180830381600087803b1580156110a057600080fd5b505af11580156110b4573d6000803e3d6000fd5b505050508273ffffffffffffffffffffffffffffffffffffffff1663095ea7b3600860009054906101000a900473ffffffffffffffffffffffffffffffffffffffff1660006040518363ffffffff1660e01b8152600401611116929190612ab8565b602060405180830381600087803b15801561113057600080fd5b505af1158015611144573d6000803e3d6000fd5b505050506040513d601f19601f82011682018060405250611168919081019061238c565b505050505050505050565b60008573ffffffffffffffffffffffffffffffffffffffff166370a08231306040518263ffffffff1660e01b81526004016111ae9190612a74565b60206040518083038186803b1580156111c657600080fd5b505afa1580156111da573d6000803e3d6000fd5b505050506040513d601f19601f820116820180604052506111fe91908101906123de565b905061120b87868661142b565b60008673ffffffffffffffffffffffffffffffffffffffff166370a08231306040518263ffffffff1660e01b81526004016112469190612a74565b60206040518083038186803b15801561125e57600080fd5b505afa158015611272573d6000803e3d6000fd5b505050506040513d601f19601f8201168201806040525061129691908101906123de565b9050600082820390506112ac888a838888610f60565b505050505050505050565b60008673ffffffffffffffffffffffffffffffffffffffff166370a08231306040518263ffffffff1660e01b81526004016112f29190612a74565b60206040518083038186803b15801561130a57600080fd5b505afa15801561131e573d6000803e3d6000fd5b505050506040513d601f19601f8201168201806040525061134291908101906123de565b9050611352878787878787611173565b60008773ffffffffffffffffffffffffffffffffffffffff166370a08231306040518263ffffffff1660e01b815260040161138d9190612a74565b60206040518083038186803b1580156113a557600080fd5b505afa1580156113b9573d6000803e3d6000fd5b505050506040513d601f19601f820116820180604052506113dd91908101906123de565b9050818111611421576040517f08c379a000000000000000000000000000000000000000000000000000000000815260040161141890612c4a565b60405180910390fd5b5050505050505050565b60008390508073ffffffffffffffffffffffffffffffffffffffff1663095ea7b3600c60009054906101000a900473ffffffffffffffffffffffffffffffffffffffff16856040518363ffffffff1660e01b815260040161148d929190612ae1565b602060405180830381600087803b1580156114a757600080fd5b505af11580156114bb573d6000803e3d6000fd5b505050506040513d601f19601f820116820180604052506114df919081019061238c565b50600b60009054906101000a900473ffffffffffffffffffffffffffffffffffffffff1673ffffffffffffffffffffffffffffffffffffffff16620111703a028360405161152d9190612a2d565b60006040518083038185875af1925050503d806000811461156a576040519150601f19603f3d011682016040523d82523d6000602084013e61156f565b606091505b5050508073ffffffffffffffffffffffffffffffffffffffff1663095ea7b3600c60009054906101000a900473ffffffffffffffffffffffffffffffffffffffff1660006040518363ffffffff1660e01b81526004016115d0929190612ab8565b602060405180830381600087803b1580156115ea57600080fd5b505af11580156115fe573d6000803e3d6000fd5b505050506040513d601f19601f82011682018060405250611622919081019061238c565b5050505050565b8273ffffffffffffffffffffffffffffffffffffffff1663095ea7b36000809054906101000a900473ffffffffffffffffffffffffffffffffffffffff16600285016040518363ffffffff1660e01b8152600401611688929190612ae1565b602060405180830381600087803b1580156116a257600080fd5b505af11580156116b6573d6000803e3d6000fd5b505050506040513d601f19601f820116820180604052506116da919081019061238c565b506060600160405190808252806020026020018201604052801561171857816020015b611705611b6d565b8152602001906001900390816116fd5790505b5090506060600360405190808252806020026020018201604052801561175857816020015b611745611b9d565b81526020019060019003908161173d5790505b50905060405180604001604052803073ffffffffffffffffffffffffffffffffffffffff16815260200160008152508260008151811061179457fe5b60200260200101819052506117a7611c09565b60405180608001604052806000151581526020016000808111156117c757fe5b81526020016000808111156117d857fe5b81526020018681525090506117eb611c47565b6001816000019060088111156117fd57fe5b9081600881111561180a57fe5b81525050600081602001818152505081816040018190525061182b87610a83565b816060018181525050308160a0019073ffffffffffffffffffffffffffffffffffffffff16908173ffffffffffffffffffffffffffffffffffffffff1681525050808360008151811061187a57fe5b602002602001018190525061188d611c47565b60088160000190600881111561189f57fe5b908160088111156118ac57fe5b815250506000816020018181525050308160a0019073ffffffffffffffffffffffffffffffffffffffff16908173ffffffffffffffffffffffffffffffffffffffff1681525050858160e00181905250808460018151811061190a57fe5b602002602001018190525061191d611c47565b611925611c09565b604051806080016040528060011515815260200160008081111561194557fe5b815260200160008081111561195657fe5b815260200160018b01815250905060008260000190600881111561197657fe5b9081600881111561198357fe5b8152505060008260200181815250508082604001819052506119a48a610a83565b826060018181525050308260a0019073ffffffffffffffffffffffffffffffffffffffff16908173ffffffffffffffffffffffffffffffffffffffff168152505081866002815181106119f357fe5b60200260200101819052506000809054906101000a900473ffffffffffffffffffffffffffffffffffffffff1673ffffffffffffffffffffffffffffffffffffffff1663a67a6a4588886040518363ffffffff1660e01b8152600401611a5a929190612b8b565b600060405180830381600087803b158015611a7457600080fd5b505af1158015611a88573d6000803e3d6000fd5b5050505050505050505050505050565b600160009054906101000a900473ffffffffffffffffffffffffffffffffffffffff1673ffffffffffffffffffffffffffffffffffffffff1663095ea7b3600d60009054906101000a900473ffffffffffffffffffffffffffffffffffffffff16836040518363ffffffff1660e01b8152600401611b17929190612ae1565b602060405180830381600087803b158015611b3157600080fd5b505af1158015611b45573d6000803e3d6000fd5b505050506040513d601f19601f82011682018060405250611b69919081019061238c565b5050565b6040518060400160405280600073ffffffffffffffffffffffffffffffffffffffff168152602001600081525090565b60405180610100016040528060006008811115611bb657fe5b815260200160008152602001611bca611cb3565b81526020016000815260200160008152602001600073ffffffffffffffffffffffffffffffffffffffff16815260200160008152602001606081525090565b6040518060800160405280600015158152602001600080811115611c2957fe5b8152602001600080811115611c3a57fe5b8152602001600081525090565b60405180610100016040528060006008811115611c6057fe5b815260200160008152602001611c74611cb3565b81526020016000815260200160008152602001600073ffffffffffffffffffffffffffffffffffffffff16815260200160008152602001606081525090565b6040518060800160405280600015158152602001600080811115611cd357fe5b8152602001600080811115611ce457fe5b8152602001600081525090565b600081359050611d0081613088565b92915050565b600081359050611d158161309f565b92915050565b60008083601f840112611d2d57600080fd5b8235905067ffffffffffffffff811115611d4657600080fd5b602083019150836020820283011115611d5e57600080fd5b9250929050565b600082601f830112611d7657600080fd5b8135611d89611d8482612d32565b612d05565b91508181835260208401935060208101905083856020840282011115611dae57600080fd5b60005b83811015611dde5781611dc48882611f8d565b845260208401935060208301925050600181019050611db1565b5050505092915050565b600082601f830112611df957600080fd5b8135611e0c611e0782612d5a565b612d05565b91508181835260208401935060208101905083856020840282011115611e3157600080fd5b60005b83811015611e615781611e478882611f8d565b845260208401935060208301925050600181019050611e34565b5050505092915050565b600081519050611e7a816130b6565b92915050565b60008083601f840112611e9257600080fd5b8235905067ffffffffffffffff811115611eab57600080fd5b602083019150836001820283011115611ec357600080fd5b9250929050565b600082601f830112611edb57600080fd5b8135611eee611ee982612d82565b612d05565b91508082526020830160208301858383011115611f0a57600080fd5b611f1583828461300e565b50505092915050565b600082601f830112611f2f57600080fd5b8135611f42611f3d82612dae565b612d05565b91508082526020830160208301858383011115611f5e57600080fd5b611f6983828461300e565b50505092915050565b600060408284031215611f8457600080fd5b81905092915050565b600081359050611f9c816130cd565b92915050565b600081519050611fb1816130cd565b92915050565b600060208284031215611fc957600080fd5b6000611fd784828501611cf1565b91505092915050565b600080600080600080600060e0888a031215611ffb57600080fd5b60006120098a828b01611d06565b975050602061201a8a828b01611f8d565b965050604061202b8a828b01611f8d565b955050606061203c8a828b01611d06565b945050608088013567ffffffffffffffff81111561205957600080fd5b6120658a828b01611eca565b93505060a06120768a828b01611f8d565b92505060c088013567ffffffffffffffff81111561209357600080fd5b61209f8a828b01611d65565b91505092959891949750929550565b60008060008060008060c087890312156120c757600080fd5b60006120d589828a01611cf1565b96505060206120e689828a01611cf1565b95505060406120f789828a01611f8d565b945050606087013567ffffffffffffffff81111561211457600080fd5b61212089828a01611f1e565b935050608061213189828a01611f8d565b92505060a087013567ffffffffffffffff81111561214e57600080fd5b61215a89828a01611de8565b9150509295509295509295565b600080600080600060a0868803121561217f57600080fd5b600061218d88828901611cf1565b955050602061219e88828901611cf1565b94505060406121af88828901611f8d565b93505060606121c088828901611f8d565b925050608086013567ffffffffffffffff8111156121dd57600080fd5b6121e988828901611de8565b9150509295509295909350565b6000806000806080858703121561220c57600080fd5b600061221a87828801611cf1565b945050602061222b87828801611f72565b935050606085013567ffffffffffffffff81111561224857600080fd5b61225487828801611e80565b925092505092959194509250565b60008060008060008060008060c0898b03121561227e57600080fd5b600061228c8b828c01611cf1565b985050602061229d8b828c01611f8d565b97505060406122ae8b828c01611cf1565b965050606089013567ffffffffffffffff8111156122cb57600080fd5b6122d78b828c01611e80565b955095505060806122ea8b828c01611f8d565b93505060a089013567ffffffffffffffff81111561230757600080fd5b6123138b828c01611d1b565b92509250509295985092959890939650565b60008060006060848603121561233a57600080fd5b600061234886828701611cf1565b935050602061235986828701611f8d565b925050604084013567ffffffffffffffff81111561237657600080fd5b61238286828701611f1e565b9150509250925092565b60006020828403121561239e57600080fd5b60006123ac84828501611e6b565b91505092915050565b6000602082840312156123c757600080fd5b60006123d584828501611f8d565b91505092915050565b6000602082840312156123f057600080fd5b60006123fe84828501611fa2565b91505092915050565b600061241383836128d8565b905092915050565b600061242783836129e0565b60408301905092915050565b600061243f8383612a0f565b60208301905092915050565b61245481612f6c565b82525050565b61246381612ed9565b82525050565b61247281612ed9565b82525050565b600061248382612e0a565b61248d8185612e68565b93508360208202850161249f85612dda565b8060005b858110156124db57848403895281516124bc8582612407565b94506124c783612e41565b925060208a019950506001810190506124a3565b50829750879550505050505092915050565b60006124f882612e15565b6125028185612e79565b935061250d83612dea565b8060005b8381101561253e578151612525888261241b565b975061253083612e4e565b925050600181019050612511565b5085935050505092915050565b60006125578385612e8a565b93507f07ffffffffffffffffffffffffffffffffffffffffffffffffffffffffffffff83111561258657600080fd5b60208302925061259783858461300e565b82840190509392505050565b60006125ae82612e20565b6125b88185612e8a565b93506125c383612dfa565b8060005b838110156125f45781516125db8882612433565b97506125e683612e5b565b9250506001810190506125c7565b5085935050505092915050565b61260a81612efd565b82525050565b600061261c8385612eac565b935061262983858461300e565b61263283613050565b840190509392505050565b600061264882612e36565b6126528185612ebd565b935061266281856020860161301d565b80840191505092915050565b600061267982612e2b565b6126838185612e9b565b935061269381856020860161301d565b61269c81613050565b840191505092915050565b6126b081612f7e565b82525050565b6126bf81612fa2565b82525050565b6126ce81612fb4565b82525050565b6126dd81612fc6565b82525050565b6126ec81612fd8565b82525050565b60006126ff601883612ec8565b91507f63616c6c6572206973206e6f7420746865206f776e65722100000000000000006000830152602082019050919050565b600061273f602683612ec8565b91507f456e642062616c616e6365206d7573742065786365656420737461727420626160008301527f6c616e63652e00000000000000000000000000000000000000000000000000006020830152604082019050919050565b60006127a5601283612ec8565b91507f6661696c656420746f20676574207765746800000000000000000000000000006000830152602082019050919050565b60006127e5602c83612ec8565b91507f466c6173684c6f616e3a20636f756c642062652063616c6c656420627920447960008301527f447820706f6f6c206f6e6c7900000000000000000000000000000000000000006020830152604082019050919050565b600061284b601d83612ec8565b91507f636f6e747261637420646964206e6f742067657420746865206c6f616e0000006000830152602082019050919050565b600061288b600083612ebd565b9150600082019050919050565b60006128a5601c83612ec8565b91507f466c6173684c6f616e3a20556e737570706f7274656420746f6b656e000000006000830152602082019050919050565b6000610160830160008301516128f160008601826126b6565b5060208301516129046020860182612a0f565b506040830151612917604086018261298b565b50606083015161292a60c0860182612a0f565b50608083015161293d60e0860182612a0f565b5060a083015161295161010086018261245a565b5060c0830151612965610120860182612a0f565b5060e083015184820361014086015261297e828261266e565b9150508091505092915050565b6080820160008201516129a16000850182612601565b5060208201516129b460208501826126c5565b5060408201516129c760408501826126d4565b5060608201516129da6060850182612a0f565b50505050565b6040820160008201516129f6600085018261245a565b506020820151612a096020850182612a0f565b50505050565b612a1881612f62565b82525050565b612a2781612f62565b82525050565b6000612a39828461263d565b915081905092915050565b6000612a4f8261287e565b9150819050919050565b6000602082019050612a6e6000830184612469565b92915050565b6000602082019050612a89600083018461244b565b92915050565b6000604082019050612aa4600083018561244b565b612ab16020830184612a1e565b9392505050565b6000604082019050612acd6000830185612469565b612ada60208301846126e3565b9392505050565b6000604082019050612af66000830185612469565b612b036020830184612a1e565b9392505050565b600060e082019050612b1f600083018c612469565b612b2c602083018b612a1e565b612b39604083018a612a1e565b612b466060830189612469565b8181036080830152612b59818789612610565b9050612b6860a0830186612a1e565b81810360c0830152612b7b81848661254b565b90509a9950505050505050505050565b60006040820190508181036000830152612ba581856124ed565b90508181036020830152612bb98184612478565b90509392505050565b600060c082019050612bd760008301896126a7565b612be460208301886126a7565b612bf16040830187612a1e565b612bfe6060830186612a1e565b8181036080830152612c1081856125a3565b9050612c1f60a0830184612a1e565b979650505050505050565b60006020820190508181036000830152612c43816126f2565b9050919050565b60006020820190508181036000830152612c6381612732565b9050919050565b60006020820190508181036000830152612c8381612798565b9050919050565b60006020820190508181036000830152612ca3816127d8565b9050919050565b60006020820190508181036000830152612cc38161283e565b9050919050565b60006020820190508181036000830152612ce381612898565b9050919050565b6000602082019050612cff6000830184612a1e565b92915050565b6000604051905081810181811067ffffffffffffffff82111715612d2857600080fd5b8060405250919050565b600067ffffffffffffffff821115612d4957600080fd5b602082029050602081019050919050565b600067ffffffffffffffff821115612d7157600080fd5b602082029050602081019050919050565b600067ffffffffffffffff821115612d9957600080fd5b601f19601f8301169050602081019050919050565b600067ffffffffffffffff821115612dc557600080fd5b601f19601f8301169050602081019050919050565b6000819050602082019050919050565b6000819050602082019050919050565b6000819050602082019050919050565b600081519050919050565b600081519050919050565b600081519050919050565b600081519050919050565b600081519050919050565b6000602082019050919050565b6000602082019050919050565b6000602082019050919050565b600082825260208201905092915050565b600082825260208201905092915050565b600082825260208201905092915050565b600082825260208201905092915050565b600082825260208201905092915050565b600081905092915050565b600082825260208201905092915050565b6000612ee482612f42565b9050919050565b6000612ef682612f42565b9050919050565b60008115159050919050565b6000819050612f1782613061565b919050565b6000819050612f2a8261306e565b919050565b6000819050612f3d8261307b565b919050565b600073ffffffffffffffffffffffffffffffffffffffff82169050919050565b6000819050919050565b6000612f7782612fea565b9050919050565b6000612f8982612f90565b9050919050565b6000612f9b82612f42565b9050919050565b6000612fad82612f09565b9050919050565b6000612fbf82612f1c565b9050919050565b6000612fd182612f2f565b9050919050565b6000612fe382612f62565b9050919050565b6000612ff582612ffc565b9050919050565b600061300782612f42565b9050919050565b82818337600083830152505050565b60005b8381101561303b578082015181840152602081019050613020565b8381111561304a576000848401525b50505050565b6000601f19601f8301169050919050565b6009811061306b57fe5b50565b6001811061307857fe5b50565b6001811061308557fe5b50565b61309181612ed9565b811461309c57600080fd5b50565b6130a881612eeb565b81146130b357600080fd5b50565b6130bf81612efd565b81146130ca57600080fd5b50565b6130d681612f62565b81146130e157600080fd5b5056fea365627a7a72315820c4cffd364ab07e3eb5ed6b527d26f3b25d13373ed8ed7d95ebab41a9d4aa3fd86c6578706572696d656e74616cf564736f6c63430005110040",
  "source": "pragma solidity ^0.5.0;\npragma experimental ABIEncoderV2;\n\ninterface Structs {\n    struct Val {\n        uint256 value;\n    }\n\n    enum ActionType {\n      Deposit,   // supply tokens\n      Withdraw,  // borrow tokens\n      Transfer,  // transfer balance between accounts\n      Buy,       // buy an amount of some token (externally)\n      Sell,      // sell an amount of some token (externally)\n      Trade,     // trade tokens against another account\n      Liquidate, // liquidate an undercollateralized or expiring account\n      Vaporize,  // use excess tokens to zero-out a completely negative account\n      Call       // send arbitrary data to an address\n    }\n\n    enum AssetDenomination {\n        Wei // the amount is denominated in wei\n    }\n\n    enum AssetReference {\n        Delta // the amount is given as a delta from the current value\n    }\n\n    struct AssetAmount {\n        bool sign; // true if positive\n        AssetDenomination denomination;\n        AssetReference ref;\n        uint256 value;\n    }\n\n    struct ActionArgs {\n        ActionType actionType;\n        uint256 accountId;\n        AssetAmount amount;\n        uint256 primaryMarketId;\n        uint256 secondaryMarketId;\n        address otherAddress;\n        uint256 otherAccountId;\n        bytes data;\n    }\n\n    struct Info {\n        address owner;  // The address that owns the account\n        uint256 number; // A nonce that allows a single address to control many accounts\n    }\n\n    struct Wei {\n        bool sign; // true if positive\n        uint256 value;\n    }\n}\n\ncontract DyDxPool is Structs {\n    function getAccountWei(Info memory account, uint256 marketId) public view returns (Wei memory);\n    function operate(Info[] memory, ActionArgs[] memory) public;                                  // <==============OPERATE\n}\n\n\npragma solidity ^0.5.0;\n\n\n/**\n * @dev Interface of the ERC20 standard as defined in the EIP. Does not include\n * the optional functions; to access them see `ERC20Detailed`.\n */\ninterface IERC20 {\n    function totalSupply() external view returns (uint256);\n    function balanceOf(address account) external view returns (uint256);\n    function transfer(address recipient, uint256 amount) external returns (bool);\n    function allowance(address owner, address spender) external view returns (uint256);\n    function approve(address spender, uint256 amount) external returns (bool);\n    function transferFrom(address sender, address recipient, uint256 amount) external returns (bool);\n    event Transfer(address indexed from, address indexed to, uint256 value);\n    event Approval(address indexed owner, address indexed spender, uint256 value);\n}\n\n\npragma solidity ^0.5.0;\n\ncontract DyDxFlashLoan is Structs {\n     DyDxPool pool = DyDxPool(0x1E0447b19BB6EcFdAe1e4AE1694b0C3659614e4e);   //Main\n    //   DyDxPool pool = DyDxPool(0x4EC3570cADaAEE08Ae384779B0f3A45EF85289DE);   //kovan\n\n     address public WETH = 0xC02aaA39b223FE8D0A0e5C4F27eAD9083C756Cc2; // Main\n    //address public WETH = 0xd0a1e359811322d97991e03f863a0c30c2cf029c; // Kovan\n\n    address public SAI = 0x89d24A6b4CcB1B6fAA2625fE562bDD9a23260359; //main\n   // address public SAI = 0x89d24A6b4CcB1B6fAA2625fE562bDD9a23260359; //kovan  is actualy unused dai\n\n    address public USDC = 0xA0b86991c6218b36c1d19D4a2e9Eb0cE3606eB48; //main\n    //address public USDC = 0xe22da380ee6b445bb8273c81944adeb6e8450422; //Kovan\n\n    address public DAI = 0x6B175474E89094C44Da98b954EedeAC495271d0F; // main\n    // address public DAI = 0xc4375b7de8af5a38a93548eb8453a498222c4ff2; // kovan\n\n    mapping(address => uint256) public currencies;\n\n    constructor() public {\n        currencies[WETH] = 1;\n        currencies[SAI] = 2;\n        currencies[USDC] = 3;\n        currencies[DAI] = 4;\n    }\n\n    modifier onlyPool() {\n        require(\n            msg.sender == address(pool),\n            \"FlashLoan: could be called by DyDx pool only\"\n        );\n        _;\n    }\n\n    function tokenToMarketId(address token) public view returns (uint256) {\n        uint256 marketId = currencies[token];\n        require(marketId != 0, \"FlashLoan: Unsupported token\");\n        return marketId - 1;\n    }\n\n    // the DyDx will call `callFunction(address sender, Info memory accountInfo, bytes memory data) public` after during `operate` call\n    function flashloan(address token, uint256 amount, bytes memory data)\n        internal\n    {\n        IERC20(token).approve(address(pool), amount + 2);\n\n        Info[] memory infos = new Info[](1);\n        ActionArgs[] memory args = new ActionArgs[](3);\n\n        infos[0] = Info(address(this), 0);\n\n        AssetAmount memory wamt = AssetAmount(\n            false,\n            AssetDenomination.Wei,\n            AssetReference.Delta,\n            amount\n        );\n        ActionArgs memory withdraw;\n        withdraw.actionType = ActionType.Withdraw;\n        withdraw.accountId = 0;\n        withdraw.amount = wamt;\n        withdraw.primaryMarketId = tokenToMarketId(token);\n        withdraw.otherAddress = address(this);\n\n        args[0] = withdraw;\n\n        ActionArgs memory call;\n        call.actionType = ActionType.Call;\n        call.accountId = 0;\n        call.otherAddress = address(this);\n        call.data = data;\n\n        args[1] = call;\n\n        ActionArgs memory deposit;\n        AssetAmount memory damt = AssetAmount(\n            true,\n            AssetDenomination.Wei,\n            AssetReference.Delta,\n            amount + 1\n        );\n        deposit.actionType = ActionType.Deposit;\n        deposit.accountId = 0;\n        deposit.amount = damt;\n        deposit.primaryMarketId = tokenToMarketId(token);\n        deposit.otherAddress = address(this);\n\n        args[2] = deposit;\n\n        pool.operate(infos, args);\n    }\n}\n\n\npragma solidity ^0.5.0;\n\n\ncontract IOneSplit {\n    function getExpectedReturn(\n        IERC20 fromToken,\n        IERC20 toToken,\n        uint256 amount,\n        uint256 parts,\n        uint256 disableFlags\n    )\n        public\n        view\n        returns(\n            uint256 returnAmount,\n            uint256[] memory distribution\n        );\n\n    function swap(\n        IERC20 fromToken,\n        IERC20 toToken,\n        uint256 amount,\n        uint256 minReturn,\n        uint256[] memory distribution,\n        uint256 disableFlags\n    ) public payable;\n}\n\n\n\ncontract TradingBot is DyDxFlashLoan {\n    uint256 public loan;\n\n    // Addresses\n    address payable OWNER;\n\n    // OneSplit Config\n    address ONE_SPLIT_ADDRESS = 0xC586BeF4a0992C495Cf22e1aeEE4E446CECDee0E;// main\n   // address ONE_SPLIT_ADDRESS = 0xC586BeF4a0992C495Cf22e1aeEE4E446CECDee0E;//Kovan\n\n    uint256 PARTS = 10;\n    uint256 FLAGS = 0;\n\n    // ZRX Config mainet\n     address ZRX_EXCHANGE_ADDRESS = 0x61935CbDd02287B511119DDb11Aeb42F1593b7Ef; //main\n    //address ZRX_EXCHANGE_ADDRESS = 0x4eacd0af335451709e1e7b570b8ea68edec8bc97; //kovan\n\n\n\n    address ZRX_ERC20_PROXY_ADDRESS = 0x95E6F48254609A6ee006F7D493c8e5fB97094ceF;//main\n    //address ZRX_ERC20_PROXY_ADDRESS = 0xf1ec01d6236d3cd881a0bf0130ea25fe4234003e;//Kovan\n\n\n     address ZRX_STAKING_PROXY = 0xa26e80e7Dea86279c6d778D702Cc413E6CFfA777; //main\n    // address ZRX_STAKING_PROXY = 0xbab9145f1d57cd4bb0c9aa2d1ece0a5b6e734d34; //Kovan\n\n\n    // Modifiers\n    modifier onlyOwner() {\n        require(msg.sender == OWNER, \"caller is not the owner!\");\n        _;\n    }\n\n    // Allow the contract to receive Ether\n    function () external payable  {}\n\n    constructor() public payable {\n        _getWeth(msg.value);\n        _approveWeth(msg.value);\n        OWNER = msg.sender;\n    }\n                          \n    function getFlashloan(address flashToken, uint256 flashAmount, address arbToken, bytes calldata zrxData, uint256 oneSplitMinReturn, uint256[] calldata oneSplitDistribution) external payable onlyOwner {\n        uint256 balanceBefore = IERC20(flashToken).balanceOf(address(this));\n        bytes memory data = abi.encode(flashToken, flashAmount, balanceBefore, arbToken, zrxData, oneSplitMinReturn, oneSplitDistribution);\n        flashloan(flashToken, flashAmount, data); // execution goes to `callFunction`\n\n        // and this point we have succefully paid the dept\n    }\n\n    function callFunction(\n        address, /* sender */\n        Info calldata, /* accountInfo */\n        bytes calldata data\n    ) external onlyPool {\n        (address flashToken, uint256 flashAmount, uint256 balanceBefore, address arbToken, bytes memory zrxData, uint256 oneSplitMinReturn, uint256[] memory oneSplitDistribution) = abi\n            .decode(data, (address, uint256, uint256, address, bytes, uint256, uint256[]));\n        uint256 balanceAfter = IERC20(flashToken).balanceOf(address(this));\n        require(\n            balanceAfter - balanceBefore == flashAmount,\n            \"contract did not get the loan\"\n        );\n        loan = balanceAfter;\n\n        // do whatever you want with the money\n        // the dept will be automatically withdrawn from this contract at the end of execution\n        _arb(flashToken, arbToken, flashAmount, zrxData, oneSplitMinReturn, oneSplitDistribution);\n    }\n\n    function arb(address _fromToken, address _toToken, uint256 _fromAmount, bytes memory _0xData, uint256 _1SplitMinReturn, uint256[] memory _1SplitDistribution) onlyOwner payable public {\n        _arb(_fromToken, _toToken, _fromAmount, _0xData, _1SplitMinReturn, _1SplitDistribution);\n    }\n\n    function _arb(address _fromToken, address _toToken, uint256 _fromAmount, bytes memory _0xData, uint256 _1SplitMinReturn, uint256[] memory _1SplitDistribution) internal {\n        // Track original balance\n        uint256 _startBalance = IERC20(_fromToken).balanceOf(address(this));\n\n        // Perform the arb trade\n        _trade(_fromToken, _toToken, _fromAmount, _0xData, _1SplitMinReturn, _1SplitDistribution);\n\n        // Track result balance\n        uint256 _endBalance = IERC20(_fromToken).balanceOf(address(this));\n\n        // Require that arbitrage is profitable\n        require(_endBalance > _startBalance, \"End balance must exceed start balance.\");\n    }\n\n    function trade(address _fromToken, address _toToken, uint256 _fromAmount, bytes memory _0xData, uint256 _1SplitMinReturn, uint256[] memory _1SplitDistribution) onlyOwner payable public {\n        _trade(_fromToken, _toToken, _fromAmount, _0xData, _1SplitMinReturn, _1SplitDistribution);\n    }\n\n    function _trade(address _fromToken, address _toToken, uint256 _fromAmount, bytes memory _0xData, uint256 _1SplitMinReturn, uint256[] memory _1SplitDistribution) internal {\n        // Track the balance of the token RECEIVED from the trade\n        uint256 _beforeBalance = IERC20(_toToken).balanceOf(address(this));\n\n        // Swap on 0x: give _fromToken, receive _toToken\n        _zrxSwap(_fromToken, _fromAmount, _0xData);\n\n        // Calculate the how much of the token we received\n        uint256 _afterBalance = IERC20(_toToken).balanceOf(address(this));\n\n        // Read _toToken balance after swap\n        uint256 _toAmount = _afterBalance - _beforeBalance;\n\n        // Swap on 1Split: give _toToken, receive _fromToken\n        _oneSplitSwap(_toToken, _fromToken, _toAmount, _1SplitMinReturn, _1SplitDistribution);\n    }\n\n    function zrxSwap(address _from, uint256 _amount, bytes memory _calldataHexString) onlyOwner public payable {\n        _zrxSwap(_from, _amount, _calldataHexString);\n    }\n\n    function _zrxSwap(address _from, uint256 _amount, bytes memory _calldataHexString) internal {\n        // Approve tokens\n        IERC20 _fromIERC20 = IERC20(_from);\n        _fromIERC20.approve(ZRX_ERC20_PROXY_ADDRESS, _amount);\n\n        // Swap tokens\n        \n        // proposed fix by Lawrence | 0xLab Thank yo    \n         address(ZRX_EXCHANGE_ADDRESS).call.value(tx.gasprice * 70e3)(_calldataHexString);\n\n        // Reset approval\n        _fromIERC20.approve(ZRX_ERC20_PROXY_ADDRESS, 0);\n    }\n\n    function oneSplitSwap(address _from, address _to, uint256 _amount, uint256 _minReturn, uint256[] memory _distribution) onlyOwner public payable {\n        _oneSplitSwap(_from, _to, _amount, _minReturn, _distribution);\n    }\n\n    function _oneSplitSwap(address _from, address _to, uint256 _amount, uint256 _minReturn, uint256[] memory _distribution) internal {\n        // Setup contracts\n        IERC20 _fromIERC20 = IERC20(_from);\n        IERC20 _toIERC20 = IERC20(_to);\n        IOneSplit _oneSplitContract = IOneSplit(ONE_SPLIT_ADDRESS);\n\n        // Approve tokens\n        _fromIERC20.approve(ONE_SPLIT_ADDRESS, _amount);\n\n        // Swap tokens: give _from, get _to\n        _oneSplitContract.swap(_fromIERC20, _toIERC20, _amount, _minReturn, _distribution, FLAGS);\n\n        // Reset approval\n        _fromIERC20.approve(ONE_SPLIT_ADDRESS, 0);\n    }\n\n    function getWeth() public payable onlyOwner {\n        _getWeth(msg.value);\n    }\n\n    function _getWeth(uint256 _amount) internal {\n        (bool success, ) = WETH.call.value(_amount)(\"\");\n        require(success, \"failed to get weth\");\n    }\n\n    function approveWeth(uint256 _amount) public onlyOwner {\n        _approveWeth(_amount);\n    }\n\n    function _approveWeth(uint256 _amount) internal {\n        IERC20(WETH).approve(ZRX_STAKING_PROXY, _amount);\n    }\n\n    // KEEP THIS FUNCTION IN CASE THE CONTRACT RECEIVES TOKENS!\n    function withdrawToken(address _tokenAddress) public onlyOwner {\n        uint256 balance = IERC20(_tokenAddress).balanceOf(address(this));\n        IERC20(_tokenAddress).transfer(OWNER, balance);\n    }\n\n    // KEEP THIS FUNCTION IN CASE THE CONTRACT KEEPS LEFTOVER ETHER!\n    function withdrawEther() public onlyOwner {\n        address self = address(this); // workaround for a possible solidity bug\n        uint256 balance = self.balance;\n        address(OWNER).transfer(balance);\n    }\n}\n",
  "sourcePath": "/home/idecentralize/code/midex/src/contracts/TradingBot.sol",
  "compiler": {
    "name": "solc",
    "version": "0.5.17+commit.d19bba13.Emscripten.clang"
  },
  "schemaVersion": "3.3.0",
  "updatedAt": "2020-12-16T03:52:42.063Z",
  "networkType": "ethereum",
  "devdoc": {
    "methods": {}
  },
  "userdoc": {
    "methods": {}
  }
}